:020000040800F2
:10000000B8060020CD0100088F100008510F00082D
:100010008D100008CF0200088F13000800000000B8
:100020000000000000000000000000009310000825
:10003000D10200080000000091100008951000088F
:10004000E7010008E7010008E7010008E7010008F0
:10005000E7010008E7010008E7010008E7010008E0
:10006000E7010008E7010008E7010008E7010008D0
:10007000E7010008E7010008E7010008E7010008C0
:10008000E7010008E7010008E7010008E7010008B0
:10009000E7010008E7010008E7010008E7010008A0
:1000A000E7010008E7010008E7010008E701000890
:1000B000E7010008E7010008E7010008E701000880
:1000C000E7010008E7010008E7010008E701000870
:1000D000E7010008E7010008E7010008E701000860
:1000E000E7010008E7010008E7010008E701000850
:1000F000E7010008E7010008E7010008E701000840
:10010000E7010008E7010008E7010008E70100082F
:10011000E7010008E7010008E7010008E70100081F
:10012000E7010008E7010008E7010008E70100080F
:1001300000F002F800F03AF80AA090E8000C8244BF
:100140008344AAF10107DA4501D100F02FF8AFF29C
:10015000090EBAE80F0013F0010F18BFFB1A43F0A5
:1001600001031847F012000010130000103A24BFDA
:1001700078C878C1FAD8520724BF30C830C144BF0C
:1001800004680C607047000000230024002500264E
:10019000103A28BF78C1FBD8520728BF30C148BFEA
:1001A0000B6070471FB51FBD10B510BD00F058F8AB
:1001B0001146FFF7F7FF01F0FBF800F076F803B403
:1001C000FFF7F2FF03BC00F07BF80000094880470E
:1001D00009480047FEE7FEE7FEE7FEE7FEE7FEE729
:1001E000FEE7FEE7FEE7FEE704480549054A064B41
:1001F00070470000F710000831010008B800002027
:10020000B8060020B8020020B80200204FF000021B
:1002100000B5134694469646203922BFA0E80C50FC
:10022000A0E80C50B1F12001BFF4F7AF090728BFD7
:10023000A0E80C5048BF0CC05DF804EB890028BF53
:1002400040F8042B08BF704748BF20F8022B11F07C
:10025000804F18BF00F8012B7047704770477047F8
:10026000754600F029F8AE4605006946534620F071
:100270000700854618B020B5FFF7B6FFBDE820405F
:100280004FF000064FF000074FF000084FF0000B52
:1002900021F00701AC46ACE8C009ACE8C009ACE805
:1002A000C009ACE8C0098D4670470446AFF3008032
:1002B0002046FFF784FF00000048704758000020E8
:1002C00001491820ABBEFEE7260002007047FEE79A
:1002D000704772B6FEE7000070B5044600F010F9F2
:1002E0000546601C02D004480078044400F008F978
:1002F000401BA042FAD370BD000000202DE9F84F4A
:10030000DFF8C891002409F1040A0AF1040B23461E
:100310000F270BF1040ED1E00125A54006EA0502E6
:10032000AA4276D1DFF8A8C14E68A6EB0C08664554
:100330002BD00DDC032E34D005DC36B3012E19D0C2
:10034000022E2FD11BE0112E16D0122E2AD119E029
:10035000B8F5881F19D006DCB8F5803F15D0B8F580
:10036000801F1FD111E0B8F5001F0ED0B8F5041F93
:1003700018D10AE0CB6815E0CB681B1D12E0CB68F2
:1003800008330FE0CB680C330CE08B682BB1012BEA
:100390004FF0080303D0456104E0042302E0056147
:1003A00000E00023FF2A01D8064601E000F1040620
:1003B0004FEA840501D9A5F12005D6F8008007FA97
:1003C00005FC28EA0C0803FA05F548EA0508C6F812
:1003D00000804D68ED0070D53E4DAE6946F00106D7
:1003E000AE61AD6924F0030605F0010500953A4DB4
:1003F00006EB050CDCF80850A607360F07FA06F8DE
:1004000025EA0805DFF8D480404503D14FF0000805
:1004100025E052E0DFF8C880404502D14FF00108E6
:100420001DE0DFF8C080404502D14FF0020816E021
:10043000DFF8B480404502D14FF003080FE0DFF849
:10044000AC80404502D14FF0040808E0DFF8A080FE
:10045000404502D14FF0050801E04FF0060808FAC8
:1004600006F848EA0508CCF808804D68D9F800601D
:10047000ED034D4601D5164300E096432E604D68CE
:10048000DAF80060AD03554601D5164300E0964307
:100490002E604D68DBF80060ED025D4601D5164325
:1004A00000E096432E604D68DEF80060AD027546B0
:1004B00001D5164300E096432E60641C0A68164678
:1004C000E2407FF429AFBDE8F88F0000000401404E
:1004D000000011100010024000000140000801401F
:1004E000000C0140001001400014014000180140C0
:1004F000001C01408068084000D0012070470000C7
:1005000001488068704700000000002002488168B0
:10051000027811448160704700000020074810B540
:10052000016841F010010160032000F067F80F201E
:1005300000F006F800F024F8002010BD0020024072
:1005400070B50D4D04464FF47A712878B1FBF0F088
:100550000A490968B1FBF0F000F0BEFA48B9102C66
:1005600007D200222146501E00F028F800206C60BF
:1005700070BD012070BD0000000000200C000020B4
:100580000C4808B5816941F001018161816901F080
:1005900001010091C16941F08051C161C06900F061
:1005A000805000900448416821F0E06141F0807182
:1005B000416008BD0010024000000140F0B40E4B45
:1005C0001B680C46C3F30223C3F10705042D00D9B1
:1005D0000425191D072901D2002300E0DB1E012696
:1005E00006FA05F1491E214099409E40761E1640AC
:1005F0003143F0BC00F0CCBE0CED00E0064900F049
:10060000070208684FF6FF03184040EA0220034A39
:1006100010430860704700000CED00E00000FA0590
:100620002DE9F0470F46050061D0434E306800F0D9
:100630000700B84209D2306820F007003843306024
:10064000306800F00700B84251D128683B4C810760
:1006500012D5400703D5606840F4E06060602878F8
:10066000000703D5606840F4605060606068A96866
:1006700020F0F000084360602878C00728D0686840
:10068000012810D02168022810D0890700292EDA0D
:10069000616821F0030101436160FFF731FF80468B
:1006A00041F288390DE021688903EFE78901EDE720
:1006B000FFF726FFA0EB0801494502D90320BDE85A
:1006C000F0876068696800F00C00B0EB810FEFD133
:1006D000306800F00700B8420BD9306820F00700FE
:1006E00038433060306800F00700B84201D0012084
:1006F000E5E72878400705D56068E96820F4E06000
:10070000084360602878000706D56068296920F4EE
:10071000605040EAC100606000F018F86168084A63
:10072000C1F30311515CC8400649086006480068DF
:10073000FFF706FF0020C2E7002002400010024041
:10074000441400080C0000200400002012A185B011
:100750000FC98DE80F0014A0144A00680490516876
:10076000134801F00C03042B10D0082B0ED1C1F359
:100770008343C9031DF803000AD5516804AAC1F3D5
:100780004041515C0A4A5043B0FBF1F005B070475C
:1007900008494843FAE70000020304050607080970
:1007A0000A0B0C0D0E0F1010010200000010024089
:1007B00000127A0000093D002DE9F84F040070D0C6
:1007C0002078C04DC00749D06868C0F38100012877
:1007D00007D06868C0F38100022809D16868C003A7
:1007E00006D52868800339D560680028E7D035E051
:1007F0006068B0F5803F0BD010B1B0F5A02F11D0DC
:10080000286820F480302860286820F4802002E0E6
:10081000286840F480302860606890B1FFF770FE6F
:1008200006460AE0286840F480202860F0E700BF10
:10083000FFF766FE801B642873D828688003F7D50D
:100840000CE0FFF75DFE064605E000BFFFF758FE2F
:10085000801B6428F0D828688003F7D420789A4E4B
:1008600080074FF001094FF0000839D5686810F093
:100870000C0F07D06868C0F38100022809D16868AE
:10088000C00306D42868800714D52069012808D140
:1008900010E02069B0B1C6F80090FFF731FE0746BE
:1008A00005E00AE1FFF72CFEC01B0228C4D8286827
:1008B0008007F7D52868616920F0F80040EAC10098
:1008C00028600DE0C6F80080FFF71AFE074604E036
:1008D000FFF716FEC01B022823D828688007F7D42C
:1008E000207800072CD57948A169D9B1C0F80090CB
:1008F000FFF706FE074604E0FFF702FEC01B0228D2
:100900000FD8686A8007F7D571484FF4FA5100682C
:10091000B0FBF1F0009000BF0098411E0091FAD2A8
:100920000EE080E0C0F80080FFF7EAFD074604E033
:10093000FFF7E6FDC01B022875D8686A8007F7D468
:100940002078400760D5E8690027C00008D4E8692E
:1009500040F08050E861E869012700F08050009085
:100960005C480168C90513D40168834641F480716D
:100970000160FFF7C5FD824606E000BFFFF7C0FD3E
:10098000A0EB0A0064284ED8DBF80000C005F5D5BE
:10099000E06801280AD008B1052813D0286A20F0A1
:1009A00001002862286A20F0040002E0286A40F072
:1009B00001002862E06841F2883B98B1FFF7A0FD92
:1009C00082460BE0286A40F004002862EEE700BF90
:1009D000FFF796FDA0EB0A0159455AD8286A80070F
:1009E000F6D50CE0FFF78CFD824605E0FFF788FDA9
:1009F000A0EB0A0159454CD8286A8007F6D41FB1EC
:100A0000E86920F08050E861E06988B36968C1F363
:100A10008101022944D00228C6F8608004D0FFF783
:100A20006FFD044638E034E0FFF76AFD074604E056
:100A3000FFF766FDC01B02282BD828688001F7D479
:100A4000206AB0F5803F05D16868A16820F40030C5
:100A500008436860D4E908010843696821F4741107
:100A600008436860C6F86090FFF74AFD044606E058
:100A700025E000BFFFF744FD001B022809D82868C5
:100A80008001F7D51BE000BFFFF73AFD001B0228ED
:100A900002D90320BDE8F88F28688001F4D40EE065
:100AA0000128F7D06868226A00F48031914204D1AD
:100AB000616A00F47010884201D00120EAE700204A
:100AC000E8E7000000100240000042428004424279
:100AD0000C0000200070004010B5401EB0F1807F77
:100AE00001D3012010BD4FF0E02460610F21601799
:100AF00000F04EFC0020A06107202061002010BD06
:100B000010B590F83C20012A22D0012280F83C2028
:100B1000CA688C6822F4407222434C6822F48062D6
:100B200022430C6822F4006222430C6922F48052B2
:100B300022434C6922F400522243C969002322F463
:100B400080420A4301684A6480F83C30002010BDAE
:100B5000022010BD70B590F83C20012A2CD0012451
:100B600080F83C40022280F83D2003685A689D6866
:100B700022F070060A6832435A60104B02689A42AB
:100B80000ED00F4B9A420BD0B2F1804F08D00D4BD4
:100B90009A4205D00C4B9A4202D00C4B9A4204D197
:100BA000496825F080031943916080F83D40002199
:100BB00080F83C10084670BD022070BD002C01403A
:100BC000003401400004004000080040000C0040D8
:100BD00010B5040003D094F83D0010B107E00120E7
:100BE00010BD002084F83C00204600F01FF80220D1
:100BF00084F83D00211D206800F07EFA012084F871
:100C0000460084F83E0084F83F0084F8400084F8F1
:100C1000410084F8420084F8430084F8440084F8DA
:100C2000450084F83D00002010BD000008B50068B4
:100C30000649884208D10648816941F40061816112
:100C4000806900F40060009008BD0000002C0140A5
:100C50000010024070B5044690F83C00012817D0FF
:100C6000012584F83C50022084F83D002068826809
:100C700022F0770222F47F4282600868502830D048
:100C80000DDC20284DD005DC98B310283BD148E07E
:100C9000022070BD302844D0402834D139E060288B
:100CA00028D0702806D0B0F5805F2CD0B0F5005F5A
:100CB00029D10AE0CB68D1E90121206800F06FFA60
:100CC0002068816841F0770109E0CB68D1E9012112
:100CD000206800F064FA2068816841F480418160F6
:100CE00011E0CA684968206800F02EFB5021206896
:100CF00007E016E0CA684968206800F036FB60210A
:100D0000206800F056FA84F83D50002084F83C003A
:100D100070BDCA684968206800F016FB4021206851
:100D2000EFE7226801461046EBE7000000B585B00A
:100D30000021009101910291039100680B498842C2
:100D400012D10B48816941F00401816180696946D3
:100D500000F0040004904FF4807000900220019095
:100D600003900448FFF7CAFA05B000BD002C01400B
:100D7000001002400008014070B5044690F83C00A5
:100D80000D4601280AD0012084F83C0042B1042A13
:100D900018D0082A2AD00C2A4DD139E0022070BD83
:100DA000206800F00FFA2068816941F00801816134
:100DB0002068816921F004018161206881692A69C4
:100DC000114311E0206800F02DFA2068816941F498
:100DD000006181612068816921F4806181612068FE
:100DE00081692A6941EA0221816124E0206800F0DA
:100DF0004FFA2068C16941F00801C1612068C169EA
:100E000021F00401C1612068C1692A69114311E020
:100E1000206800F071FA2068C16941F40061C16185
:100E20002068C16921F48061C1612068C1692A69B3
:100E300041EA0221C161002084F83C0070BD10B578
:100E4000040003D094F83D0010B107E0012010BD6C
:100E5000002084F83C00204600F01EF8022084F8B0
:100E60003D00211D206800F047F9012084F846006C
:100E700084F83E0084F83F0084F8400084F8410084
:100E800084F8420084F8430084F8440084F8450064
:100E900084F83D00002010BD7047000010B50446E6
:100EA000022249B104290ED0082913D094F8410038
:100EB000012816D0012010BD94F83E000128F9D178
:100EC00084F83E200FE094F83F000128F2D184F826
:100ED0003F2008E094F840000128EBD184F840203E
:100EE00001E084F841200122206800F04BF9134909
:100EF0002068134A884201D0904203D1436C43F4E6
:100F000000434364206888420DD090420BD0B0F17A
:100F1000804F08D00B49884205D00B49884202D047
:100F20000A49884204D1816801F00701062903D0EB
:100F3000016841F001010160002010BD002C01405A
:100F4000003401400004004000080040000C004054
:100F5000FEE7000000B585B0002001900390164820
:100F6000816941F010018161816901F010010491F2
:100F7000816941F020018161816901F020010491C2
:100F8000816941F004018161816901F004010491EA
:100F9000816941F0080181618069694600F00800BB
:100FA000049042F202000090012002900348FFF7F3
:100FB000A5F905B000BD000000100240001001407E
:100FC00010B596B000240F941094119412941394B9
:100FD0001C2108A81494FFF719F920216846FFF78F
:100FE00015F92948274901604721C0E9011440F259
:100FF000F311C0E9031444618461FFF7E9FD08B10E
:10100000FFF767F94FF480500F900FA91E48FFF7C4
:1010100021FE08B1FFF75DF91B48FFF710FF08B18B
:10102000FFF757F9139413A917481494FFF792FD8B
:1010300008B1FFF74EF9602008900120CDE90904BE
:101040000B940C940D94002208A90F480E94FFF7FE
:1010500093FE08B1FFF73DF900944FF40050CDE93D
:101060000440029401940394694607480794FFF7EB
:1010700047FD08B1FFF72DF90348FFF757FE16B0FB
:1010800010BD0000002C014010000020FEE7FEE72C
:1010900070477047FFF73ABA30B58FB028216846DD
:1010A000FFF7B4F814210AA8FFF7B0F801210804EB
:1010B000CDE900100024029402250491CDE90750E7
:1010C0004FF4E01009906846FFF776FB08B172B65E
:1010D000FEE70F20CDE90A054FF48060CDE90C4012
:1010E00002210AA80E94FFF79BFA002801D072B6DD
:1010F000FEE70FB030BD7047F0B502681C4B1D4DC8
:101100001D4E1E4F1E4C4FF0804C984209D0A042FD
:1011100007D0604505D0A84203D0B04201D0B84204
:1011200004D122F0700E4A6842EA0E02984209D0B9
:10113000A04207D0604505D0A84203D0B04201D0FC
:10114000B84203D122F44075CA682A434D6922F09F
:1011500080022A4302608A68C2620A6882629842F8
:1011600001D0A04201D10969016301214161F0BDB3
:10117000002C01400004004000080040000C00402A
:101180000034014010B501F01F030121046A9940A9
:101190008C430462016A9A401143016210BD10B58C
:1011A000846842EA032224F47F440A432243826093
:1011B00010BD826822F070020A4342F0070181608C
:1011C00070470000F0B5026A22F001020262036A71
:1011D00042688469124E24F073050C682C4323F096
:1011E00002058B682B430D4DA84201D0B04205D1BA
:1011F00023F00807CB683B4323F00403A84201D047
:10120000B04205D14D6922F4407215438A692A43E0
:1012100042608461496841630362F0BD002C014073
:1012200000340140F0B5026A22F010020262026A44
:10123000436884690D6824F4E64444EA05248D6813
:1012400022F0200242EA05120F4D104EA84201D0B2
:10125000B04206D1CF6822F0800242EA071222F0A3
:101260004002A84201D0B04207D14D6923F4406347
:1012700043EA85038D6943EA8503436084614968D5
:1012800081630262F0BD0000002C01400034014087
:10129000F0B5026A22F480720262026A4368C4698D
:1012A00022F4007224F073050C68124E2C438D68F2
:1012B00042EA05220E4DA84201D0B04206D1CF68C5
:1012C00022F4006242EA072222F48062A84201D09E
:1012D000B04207D14D6923F4405343EA05138D69A9
:1012E00043EA05134360C4614968C1630262F0BD0B
:1012F000002C01400034014030B5026A22F48052D3
:101300000262046A4268C3690D6823F4E64343EA53
:1013100005238D6824F4005444EA0534084DA8429E
:1013200002D0084DA84204D14D6922F4804242EA1D
:1013300085124260C36149680164046230BD0000E7
:10134000002C01400034014010B5036A046A24F007
:1013500001040462846924F0F00444EA021423F0D6
:101360000A020A438461026210BD10B5036A23F0C9
:10137000100303628369046A23F4704343EA023270
:1013800024F0A00343EA01118261016210BDFEE76F
:101390000907090E002804DB00F1E02080F80014A2
:1013A000704700F00F0000F1E02080F8141D704736
:1013B0004FF4FA74FFF7B2F8FFF76EFEFFF7CAFDBD
:1013C000FFF7FEFD00211D48FFF768FD1C4D1B4F78
:1013D0006E1402212846FFF78DF898B90A20FEF70F
:1013E0007BFF02212846FFF785F858B93868641C4E
:1013F00044630120FEF770FF02212846FFF77AF8C8
:101400000028F9D031462846FFF774F80028E0D1CB
:101410000A20FEF761FF31462846FFF76BF80028E7
:10142000D7D13868641E44630120FEF755FF31466A
:101430002846FFF75FF80028F9D0CAE7100000201F
:101440000010014000000000000000000102030441
:1014500006070809741400080000002010000000AE
:101460006C0100088414000810000020A806000089
:1014700088010008010000001000000000000000CA
:041480000024F40050
:0400000508000131BD
:00000001FF
